{
  "_format": "hh-sol-artifact-1",
  "contractName": "FrogFun",
  "sourceName": "contracts/FrogFun.sol",
  "abi": [
    {
      "inputs": [],
      "name": "InvalidInitialization",
      "type": "error"
    },
    {
      "inputs": [],
      "name": "NotInitializing",
      "type": "error"
    },
    {
      "inputs": [
        {
          "internalType": "address",
          "name": "owner",
          "type": "address"
        }
      ],
      "name": "OwnableInvalidOwner",
      "type": "error"
    },
    {
      "inputs": [
        {
          "internalType": "address",
          "name": "account",
          "type": "address"
        }
      ],
      "name": "OwnableUnauthorizedAccount",
      "type": "error"
    },
    {
      "inputs": [],
      "name": "ReentrancyGuardReentrantCall",
      "type": "error"
    },
    {
      "anonymous": false,
      "inputs": [
        {
          "indexed": false,
          "internalType": "uint64",
          "name": "version",
          "type": "uint64"
        }
      ],
      "name": "Initialized",
      "type": "event"
    },
    {
      "anonymous": false,
      "inputs": [
        {
          "indexed": true,
          "internalType": "address",
          "name": "provider",
          "type": "address"
        },
        {
          "indexed": false,
          "internalType": "uint256",
          "name": "amountToken",
          "type": "uint256"
        },
        {
          "indexed": false,
          "internalType": "uint256",
          "name": "amountETH",
          "type": "uint256"
        }
      ],
      "name": "LiquidityAdded",
      "type": "event"
    },
    {
      "anonymous": false,
      "inputs": [
        {
          "indexed": true,
          "internalType": "address",
          "name": "burnAddress",
          "type": "address"
        },
        {
          "indexed": false,
          "internalType": "uint256",
          "name": "liquidity",
          "type": "uint256"
        }
      ],
      "name": "LiquidityBurned",
      "type": "event"
    },
    {
      "anonymous": false,
      "inputs": [
        {
          "indexed": true,
          "internalType": "address",
          "name": "previousOwner",
          "type": "address"
        },
        {
          "indexed": true,
          "internalType": "address",
          "name": "newOwner",
          "type": "address"
        }
      ],
      "name": "OwnershipTransferred",
      "type": "event"
    },
    {
      "anonymous": false,
      "inputs": [
        {
          "indexed": true,
          "internalType": "address",
          "name": "creator",
          "type": "address"
        },
        {
          "indexed": true,
          "internalType": "uint256",
          "name": "tokenId",
          "type": "uint256"
        },
        {
          "indexed": false,
          "internalType": "uint256",
          "name": "amount",
          "type": "uint256"
        },
        {
          "indexed": false,
          "internalType": "address",
          "name": "tokenAddress",
          "type": "address"
        }
      ],
      "name": "TokenCreated",
      "type": "event"
    },
    {
      "anonymous": false,
      "inputs": [
        {
          "indexed": true,
          "internalType": "address",
          "name": "buyer",
          "type": "address"
        },
        {
          "indexed": false,
          "internalType": "uint256",
          "name": "tokenId",
          "type": "uint256"
        },
        {
          "indexed": false,
          "internalType": "uint256",
          "name": "amount",
          "type": "uint256"
        },
        {
          "indexed": false,
          "internalType": "uint256",
          "name": "cost",
          "type": "uint256"
        }
      ],
      "name": "TokensPurchased",
      "type": "event"
    },
    {
      "anonymous": false,
      "inputs": [
        {
          "indexed": true,
          "internalType": "address",
          "name": "seller",
          "type": "address"
        },
        {
          "indexed": false,
          "internalType": "uint256",
          "name": "tokenId",
          "type": "uint256"
        },
        {
          "indexed": false,
          "internalType": "uint256",
          "name": "amount",
          "type": "uint256"
        },
        {
          "indexed": false,
          "internalType": "uint256",
          "name": "revenue",
          "type": "uint256"
        }
      ],
      "name": "TokensSold",
      "type": "event"
    },
    {
      "inputs": [],
      "name": "BURN_ADDRESS",
      "outputs": [
        {
          "internalType": "address",
          "name": "",
          "type": "address"
        }
      ],
      "stateMutability": "view",
      "type": "function"
    },
    {
      "inputs": [],
      "name": "LIQUIDITY_AMOUNT",
      "outputs": [
        {
          "internalType": "uint256",
          "name": "",
          "type": "uint256"
        }
      ],
      "stateMutability": "view",
      "type": "function"
    },
    {
      "inputs": [],
      "name": "TARGET_VALUE",
      "outputs": [
        {
          "internalType": "uint256",
          "name": "",
          "type": "uint256"
        }
      ],
      "stateMutability": "view",
      "type": "function"
    },
    {
      "inputs": [],
      "name": "TOTAL_SUPPLY",
      "outputs": [
        {
          "internalType": "uint256",
          "name": "",
          "type": "uint256"
        }
      ],
      "stateMutability": "view",
      "type": "function"
    },
    {
      "inputs": [],
      "name": "a",
      "outputs": [
        {
          "internalType": "uint256",
          "name": "",
          "type": "uint256"
        }
      ],
      "stateMutability": "view",
      "type": "function"
    },
    {
      "inputs": [
        {
          "internalType": "uint256",
          "name": "tokenId",
          "type": "uint256"
        },
        {
          "internalType": "uint256",
          "name": "amount",
          "type": "uint256"
        }
      ],
      "name": "buyTokens",
      "outputs": [],
      "stateMutability": "payable",
      "type": "function"
    },
    {
      "inputs": [
        {
          "internalType": "uint256",
          "name": "_supply",
          "type": "uint256"
        }
      ],
      "name": "calculatePrice",
      "outputs": [
        {
          "internalType": "uint256",
          "name": "",
          "type": "uint256"
        }
      ],
      "stateMutability": "pure",
      "type": "function"
    },
    {
      "inputs": [
        {
          "internalType": "uint256",
          "name": "amount",
          "type": "uint256"
        },
        {
          "internalType": "string",
          "name": "name",
          "type": "string"
        },
        {
          "internalType": "string",
          "name": "symbol",
          "type": "string"
        }
      ],
      "name": "createToken",
      "outputs": [],
      "stateMutability": "nonpayable",
      "type": "function"
    },
    {
      "inputs": [],
      "name": "initialize",
      "outputs": [],
      "stateMutability": "nonpayable",
      "type": "function"
    },
    {
      "inputs": [],
      "name": "k",
      "outputs": [
        {
          "internalType": "uint256",
          "name": "",
          "type": "uint256"
        }
      ],
      "stateMutability": "view",
      "type": "function"
    },
    {
      "inputs": [],
      "name": "owner",
      "outputs": [
        {
          "internalType": "address",
          "name": "",
          "type": "address"
        }
      ],
      "stateMutability": "view",
      "type": "function"
    },
    {
      "inputs": [],
      "name": "renounceOwnership",
      "outputs": [],
      "stateMutability": "nonpayable",
      "type": "function"
    },
    {
      "inputs": [
        {
          "internalType": "uint256",
          "name": "tokenId",
          "type": "uint256"
        },
        {
          "internalType": "uint256",
          "name": "amount",
          "type": "uint256"
        }
      ],
      "name": "sellTokens",
      "outputs": [],
      "stateMutability": "nonpayable",
      "type": "function"
    },
    {
      "inputs": [
        {
          "internalType": "address",
          "name": "_treasury",
          "type": "address"
        }
      ],
      "name": "setTreasury",
      "outputs": [],
      "stateMutability": "nonpayable",
      "type": "function"
    },
    {
      "inputs": [
        {
          "internalType": "address",
          "name": "_uniswapRouter",
          "type": "address"
        }
      ],
      "name": "setUniswapRouter",
      "outputs": [],
      "stateMutability": "nonpayable",
      "type": "function"
    },
    {
      "inputs": [],
      "name": "tokenIdCounter",
      "outputs": [
        {
          "internalType": "uint256",
          "name": "",
          "type": "uint256"
        }
      ],
      "stateMutability": "view",
      "type": "function"
    },
    {
      "inputs": [
        {
          "internalType": "uint256",
          "name": "",
          "type": "uint256"
        }
      ],
      "name": "tokenInfo",
      "outputs": [
        {
          "internalType": "address",
          "name": "creator",
          "type": "address"
        },
        {
          "internalType": "uint256",
          "name": "amount",
          "type": "uint256"
        },
        {
          "internalType": "address",
          "name": "tokenAddress",
          "type": "address"
        },
        {
          "internalType": "uint256",
          "name": "totalSupplyMinted",
          "type": "uint256"
        },
        {
          "internalType": "uint256",
          "name": "reserveBalance",
          "type": "uint256"
        }
      ],
      "stateMutability": "view",
      "type": "function"
    },
    {
      "inputs": [
        {
          "internalType": "address",
          "name": "newOwner",
          "type": "address"
        }
      ],
      "name": "transferOwnership",
      "outputs": [],
      "stateMutability": "nonpayable",
      "type": "function"
    },
    {
      "inputs": [],
      "name": "treasury",
      "outputs": [
        {
          "internalType": "address",
          "name": "",
          "type": "address"
        }
      ],
      "stateMutability": "view",
      "type": "function"
    },
    {
      "inputs": [],
      "name": "uniswapRouter",
      "outputs": [
        {
          "internalType": "contract IUniswapV2Router02",
          "name": "",
          "type": "address"
        }
      ],
      "stateMutability": "view",
      "type": "function"
    },
    {
      "inputs": [],
      "name": "weth",
      "outputs": [
        {
          "internalType": "address",
          "name": "",
          "type": "address"
        }
      ],
      "stateMutability": "view",
      "type": "function"
    },
    {
      "stateMutability": "payable",
      "type": "receive"
    }
  ],
  "bytecode": "0x608060405234801561001057600080fd5b50612837806100206000396000f3fe60806040526004361061012e5760003560e01c806398bdf6f5116100ab578063cc33c8751161006f578063cc33c8751461032b578063ed9772b6146103bc578063f0f44260146103dc578063f2fde38b146103fc578063faecca911461041c578063fccc28131461043a57600080fd5b806398bdf6f514610299578063ae104265146102af578063b1037e78146102cf578063b4f40c61146102ef578063bea9849e1461030b57600080fd5b80637975ce28116100f25780637975ce28146101f65780638129fc1c146102095780638918ac821461021e5780638da5cb5b1461023c578063902d55a51461027957600080fd5b80630dbe671f1461013a5780633fc8cef31461016757806361d027b31461019f578063715018a6146101bf578063735de9f7146101d657600080fd5b3661013557005b600080fd5b34801561014657600080fd5b50610154655af3107a400081565b6040519081526020015b60405180910390f35b34801561017357600080fd5b50600354610187906001600160a01b031681565b6040516001600160a01b03909116815260200161015e565b3480156101ab57600080fd5b50600154610187906001600160a01b031681565b3480156101cb57600080fd5b506101d4610450565b005b3480156101e257600080fd5b50600254610187906001600160a01b031681565b6101d46102043660046115d6565b610464565b34801561021557600080fd5b506101d461077b565b34801561022a57600080fd5b5061015469028a857425466f80000081565b34801561024857600080fd5b507f9016d09d72d40fdae2fd8ceac6b6234c7706214fd39c1cd1e609a0528c199300546001600160a01b0316610187565b34801561028557600080fd5b506101546b033b2e3c9fd0803ce800000081565b3480156102a557600080fd5b5061015460005481565b3480156102bb57600080fd5b506101546102ca3660046115f8565b610958565b3480156102db57600080fd5b506101d46102ea3660046116b4565b61099d565b3480156102fb57600080fd5b50610154670de0b6b3a764000081565b34801561031757600080fd5b506101d4610326366004611736565b610c70565b34801561033757600080fd5b506103836103463660046115f8565b6004602081905260009182526040909120805460018201546002830154600384015493909401546001600160a01b03928316949193919092169185565b604080516001600160a01b039687168152602081019590955292909416918301919091526060820152608081019190915260a00161015e565b3480156103c857600080fd5b506101d46103d73660046115d6565b610c9a565b3480156103e857600080fd5b506101d46103f7366004611736565b610e7a565b34801561040857600080fd5b506101d4610417366004611736565b610ea4565b34801561042857600080fd5b50610154690e9c7f5bd6550120000081565b34801561044657600080fd5b5061018761dead81565b610458610ee2565b6104626000610f3d565b565b61046c610fae565b6000828152600460205260408120600381015490919061048b90610958565b90506000670de0b6b3a76400006104a28584611770565b6104ac9190611787565b905060006104bb606483611787565b905060006104c982846117a9565b9050803410156105175760405162461bcd60e51b8152602060048201526014602482015273125b9cdd59999a58da595b9d081c185e5b595b9d60621b60448201526064015b60405180910390fd5b60028501546040516370a0823160e01b815230600482015287916001600160a01b0316906370a0823190602401602060405180830381865afa158015610561573d6000803e3d6000fd5b505050506040513d601f19601f8201168201806040525081019061058591906117bc565b10156105d35760405162461bcd60e51b815260206004820152601d60248201527f4e6f7420656e6f75676820746f6b656e7320696e20636f6e7472616374000000604482015260640161050e565b8034111561061357336108fc6105e983346117d5565b6040518115909202916000818181858888f19350505050158015610611573d6000803e3d6000fd5b505b600285015460405163a9059cbb60e01b8152336004820152602481018890526001600160a01b039091169063a9059cbb906044016020604051808303816000875af1158015610666573d6000803e3d6000fd5b505050506040513d601f19601f8201168201806040525081019061068a91906117e8565b508585600301600082825461069f91906117a9565b92505081905550828560040160008282546106ba91906117a9565b90915550506001546040516001600160a01b039091169083156108fc029084906000818181858888f193505050501580156106f9573d6000803e3d6000fd5b50604080518881526020810188905290810184905233907f0d1a0d5e3d583a0e92588799dd06e50fd78c07daf05f0cc06d7b848b1ca445f19060600160405180910390a2690e9c7f5bd6550120000085600401541061075b5761075b87610fe6565b505050505061077760016000805160206127e283398151915255565b5050565b7ff0c57e16840df040f15088dc2f81fe391c3923bec73e23a9662efc9c229c6a008054600160401b810460ff16159067ffffffffffffffff166000811580156107c15750825b905060008267ffffffffffffffff1660011480156107de5750303b155b9050811580156107ec575080155b1561080a5760405163f92ee8a960e01b815260040160405180910390fd5b845467ffffffffffffffff19166001178555831561083457845460ff60401b1916600160401b1785555b61083d336114f2565b610845611503565b600280546001600160a01b031916734752ba5dbc23f44d87826276bf6fd6b1c372ad24908117909155604080516315ab88c960e31b8152905163ad5c4648916004808201926020929091908290030181865afa1580156108a9573d6000803e3d6000fd5b505050506040513d601f19601f820116820180604052508101906108cd919061180a565b600380546001600160a01b03929092166001600160a01b031992831617905560018054909116736b01ad68ab6f53128b7a6fe7e199b31179a4629a179055831561095157845460ff60401b19168555604051600181527fc7f505b2f371ae2175ee4913f4499e1f2633a7b5936321eed1cdaeb6115181d29060200160405180910390a15b5050505050565b6000610985670de0b6b3a764000061097684655af3107a4000611770565b6109809190611787565b611513565b61099790670de0b6b3a7640000611770565b92915050565b6109a5610fae565b6000805490806109b483611827565b919050555060008054905060006040516109cd906115c9565b604051809103906000f0801580156109e9573d6000803e3d6000fd5b5060405163266c45bb60e11b81529091506001600160a01b03821690634cd88b7690610a1b9087908790600401611886565b600060405180830381600087803b158015610a3557600080fd5b505af1158015610a49573d6000803e3d6000fd5b50506040516340c10f1960e01b81523060048201526b033b2e3c9fd0803ce800000060248201528392506001600160a01b03831691506340c10f1990604401600060405180830381600087803b158015610aa257600080fd5b505af1158015610ab6573d6000803e3d6000fd5b505060405163f2fde38b60e01b81523060048201526001600160a01b038516925063f2fde38b9150602401600060405180830381600087803b158015610afb57600080fd5b505af1158015610b0f573d6000803e3d6000fd5b50506040805160a081018252338082526b033b2e3c9fd0803ce800000060208084019182526001600160a01b03888116858701818152600060608801818152608089018281528f8352600496879052918a9020985189549086166001600160a01b0319918216178a55965160018a015591516002890180549190951696169590951790925590516003860155915193810193909355925163a9059cbb60e01b815291820152602481018a905290925063a9059cbb91506044016020604051808303816000875af1158015610be7573d6000803e3d6000fd5b505050506040513d601f19601f82011682018060405250810190610c0b91906117e8565b50604080518781526001600160a01b0383166020820152849133917fccc9864694624b0c038ec3e48a8034ba12670fc3367216107148dcc616704e8c910160405180910390a3505050610c6b60016000805160206127e283398151915255565b505050565b610c78610ee2565b600280546001600160a01b0319166001600160a01b0392909216919091179055565b610ca2610fae565b60008281526004602052604081206003810154909190610cc190610958565b90506000670de0b6b3a7640000610cd88584611770565b610ce29190611787565b90506000610cf1606483611787565b90506000610cff82846117d5565b60028601546040516323b872dd60e01b8152336004820152306024820152604481018990529192506001600160a01b0316906323b872dd906064016020604051808303816000875af1158015610d59573d6000803e3d6000fd5b505050506040513d601f19601f82011682018060405250810190610d7d91906117e8565b5085856003016000828254610d9291906117d5565b9250508190555080856004016000828254610dad91906117d5565b90915550506001546040516001600160a01b039091169083156108fc029084906000818181858888f19350505050158015610dec573d6000803e3d6000fd5b50604051339082156108fc029083906000818181858888f19350505050158015610e1a573d6000803e3d6000fd5b50604080518881526020810188905290810182905233907f6db63bebf1e6540277744df32846ebdb98385b1a73f2d5de49b28348add63f509060600160405180910390a2505050505061077760016000805160206127e283398151915255565b610e82610ee2565b600180546001600160a01b0319166001600160a01b0392909216919091179055565b610eac610ee2565b6001600160a01b038116610ed657604051631e4fbdf760e01b81526000600482015260240161050e565b610edf81610f3d565b50565b33610f147f9016d09d72d40fdae2fd8ceac6b6234c7706214fd39c1cd1e609a0528c199300546001600160a01b031690565b6001600160a01b0316146104625760405163118cdaa760e01b815233600482015260240161050e565b7f9016d09d72d40fdae2fd8ceac6b6234c7706214fd39c1cd1e609a0528c19930080546001600160a01b031981166001600160a01b03848116918217845560405192169182907f8be0079c531659141344cd1fd0a4f28419497f9722a3daafe3b4186f6b6457e090600090a3505050565b6000805160206127e2833981519152805460011901610fe057604051633ee5aeb560e01b815260040160405180910390fd5b60029055565b6000818152600460208190526040808320600281015491516370a0823160e01b8152309381019390935292916001600160a01b03909116906370a0823190602401602060405180830381865afa158015611044573d6000803e3d6000fd5b505050506040513d601f19601f8201168201806040525081019061106891906117bc565b905069028a857425466f800000816110d25760405162461bcd60e51b815260206004820152602760248201527f496e73756666696369656e7420746f6b656e20616d6f756e7420666f72206c696044820152667175696469747960c81b606482015260840161050e565b69028a857425466f800000836004015410156111305760405162461bcd60e51b815260206004820152601e60248201527f496e73756666696369656e742045544820666f72206c69717569646974790000604482015260640161050e565b600283810154905460405163095ea7b360e01b81526001600160a01b0391821660048201526024810185905291169063095ea7b3906044016020604051808303816000875af1158015611187573d6000803e3d6000fd5b505050506040513d601f19601f820116820180604052508101906111ab91906117e8565b506002805490840154600091829182916001600160a01b039081169163f305d71991879116888580306111df42600f6117a9565b60405160e089901b6001600160e01b03191681526001600160a01b039687166004820152602481019590955260448501939093526064840191909152909216608482015260a481019190915260c40160606040518083038185885af115801561124c573d6000803e3d6000fd5b50505050506040513d601f19601f8201168201806040525081019061127191906118b4565b9250925092506000600260009054906101000a90046001600160a01b03166001600160a01b031663c45a01556040518163ffffffff1660e01b8152600401602060405180830381865afa1580156112cc573d6000803e3d6000fd5b505050506040513d601f19601f820116820180604052508101906112f0919061180a565b600288015460035460405163e6a4390560e01b81526001600160a01b03928316600482015290821660248201529192506000919083169063e6a4390590604401602060405180830381865afa15801561134d573d6000803e3d6000fd5b505050506040513d601f19601f82011682018060405250810190611371919061180a565b60405163a9059cbb60e01b815261dead6004820152602481018590529091506001600160a01b0382169063a9059cbb906044016020604051808303816000875af11580156113c3573d6000803e3d6000fd5b505050506040513d601f19601f820116820180604052508101906113e791906117e8565b50858860040160008282546113fc91906117d5565b9091555050600288015460408051632e41225b60e01b815290516001600160a01b0390921691632e41225b9160048082019260009290919082900301818387803b15801561144957600080fd5b505af115801561145d573d6000803e3d6000fd5b505060408051888152602081018890523393507fac1d76749e5447b7b16f5ab61447e1bd502f3bb4807af3b28e620d1700a6ee4592500160405180910390a260405183815261dead907f875e07afd7ce17c6531b1a6b7b34829dcd8b7e6639448afbd6a8e29fa1422b829060200160405180910390a2505050505050505050565b60016000805160206127e283398151915255565b6114fa611570565b610edf816115b9565b61150b611570565b6104626115c1565b6000670de0b6b3a76400008060015b60148110156115675761153d81670de0b6b3a7640000611770565b6115478684611770565b6115519190611787565b915061155d82846117a9565b9250600101611522565b50909392505050565b7ff0c57e16840df040f15088dc2f81fe391c3923bec73e23a9662efc9c229c6a0054600160401b900460ff1661046257604051631afcd79f60e31b815260040160405180910390fd5b610eac611570565b6114de611570565b610eff806118e383390190565b600080604083850312156115e957600080fd5b50508035926020909101359150565b60006020828403121561160a57600080fd5b5035919050565b634e487b7160e01b600052604160045260246000fd5b600082601f83011261163857600080fd5b813567ffffffffffffffff8082111561165357611653611611565b604051601f8301601f19908116603f0116810190828211818310171561167b5761167b611611565b8160405283815286602085880101111561169457600080fd5b836020870160208301376000602085830101528094505050505092915050565b6000806000606084860312156116c957600080fd5b83359250602084013567ffffffffffffffff808211156116e857600080fd5b6116f487838801611627565b9350604086013591508082111561170a57600080fd5b5061171786828701611627565b9150509250925092565b6001600160a01b0381168114610edf57600080fd5b60006020828403121561174857600080fd5b813561175381611721565b9392505050565b634e487b7160e01b600052601160045260246000fd5b80820281158282048414176109975761099761175a565b6000826117a457634e487b7160e01b600052601260045260246000fd5b500490565b808201808211156109975761099761175a565b6000602082840312156117ce57600080fd5b5051919050565b818103818111156109975761099761175a565b6000602082840312156117fa57600080fd5b8151801515811461175357600080fd5b60006020828403121561181c57600080fd5b815161175381611721565b6000600182016118395761183961175a565b5060010190565b6000815180845260005b818110156118665760208185018101518683018201520161184a565b506000602082860101526020601f19601f83011685010191505092915050565b6040815260006118996040830185611840565b82810360208401526118ab8185611840565b95945050505050565b6000806000606084860312156118c957600080fd5b835192506020840151915060408401519050925092509256fe60806040526000805460ff1916905534801561001a57600080fd5b50610ed58061002a6000396000f3fe608060405234801561001057600080fd5b50600436106101005760003560e01c806370a0823111610097578063a9059cbb11610066578063a9059cbb14610249578063c71b49b01461025c578063dd62ed3e14610269578063f2fde38b1461027c57600080fd5b806370a08231146101c9578063715018a6146101ff5780638da5cb5b1461020757806395d89b411461024157600080fd5b80632e41225b116100d35780632e41225b1461018a578063313ce5671461019457806340c10f19146101a35780634cd88b76146101b657600080fd5b806306fdde0314610105578063095ea7b31461012357806318160ddd1461014657806323b872dd14610177575b600080fd5b61010d61028f565b60405161011a9190610ae7565b60405180910390f35b610136610131366004610b52565b610352565b604051901515815260200161011a565b7f52c63247e1f47db19d5ce0460030c497f067ca4cebf71ba98eeadabe20bace02545b60405190815260200161011a565b610136610185366004610b7c565b61036c565b610192610390565b005b6040516012815260200161011a565b6101926101b1366004610b52565b6103a7565b6101926101c4366004610c5b565b6103bd565b6101696101d7366004610cbf565b6001600160a01b03166000908152600080516020610e80833981519152602052604090205490565b6101926104d8565b7f9016d09d72d40fdae2fd8ceac6b6234c7706214fd39c1cd1e609a0528c199300546040516001600160a01b03909116815260200161011a565b61010d6104ec565b610136610257366004610b52565b61052b565b6000546101369060ff1681565b610169610277366004610ce1565b610539565b61019261028a366004610cbf565b610583565b7f52c63247e1f47db19d5ce0460030c497f067ca4cebf71ba98eeadabe20bace038054606091600080516020610e80833981519152916102ce90610d14565b80601f01602080910402602001604051908101604052809291908181526020018280546102fa90610d14565b80156103475780601f1061031c57610100808354040283529160200191610347565b820191906000526020600020905b81548152906001019060200180831161032a57829003601f168201915b505050505091505090565b6000336103608185856105c6565b60019150505b92915050565b60003361037a8582856105d8565b61038585858561063e565b506001949350505050565b61039861069d565b6000805460ff19166001179055565b6103af61069d565b6103b982826106f8565b5050565b7ff0c57e16840df040f15088dc2f81fe391c3923bec73e23a9662efc9c229c6a008054600160401b810460ff16159067ffffffffffffffff166000811580156104035750825b905060008267ffffffffffffffff1660011480156104205750303b155b90508115801561042e575080155b1561044c5760405163f92ee8a960e01b815260040160405180910390fd5b845467ffffffffffffffff19166001178555831561047657845460ff60401b1916600160401b1785555b610480878761072e565b61048933610740565b83156104cf57845460ff60401b19168555604051600181527fc7f505b2f371ae2175ee4913f4499e1f2633a7b5936321eed1cdaeb6115181d29060200160405180910390a15b50505050505050565b6104e061069d565b6104ea6000610751565b565b7f52c63247e1f47db19d5ce0460030c497f067ca4cebf71ba98eeadabe20bace048054606091600080516020610e80833981519152916102ce90610d14565b60003361036081858561063e565b6001600160a01b0391821660009081527f52c63247e1f47db19d5ce0460030c497f067ca4cebf71ba98eeadabe20bace016020908152604080832093909416825291909152205490565b61058b61069d565b6001600160a01b0381166105ba57604051631e4fbdf760e01b8152600060048201526024015b60405180910390fd5b6105c381610751565b50565b6105d383838360016107c2565b505050565b60006105e48484610539565b90506000198114610638578181101561062957604051637dc7a0d960e11b81526001600160a01b038416600482015260248101829052604481018390526064016105b1565b610638848484840360006107c2565b50505050565b6001600160a01b03831661066857604051634b637e8f60e11b8152600060048201526024016105b1565b6001600160a01b0382166106925760405163ec442f0560e01b8152600060048201526024016105b1565b6105d38383836108aa565b336106cf7f9016d09d72d40fdae2fd8ceac6b6234c7706214fd39c1cd1e609a0528c199300546001600160a01b031690565b6001600160a01b0316146104ea5760405163118cdaa760e01b81523360048201526024016105b1565b6001600160a01b0382166107225760405163ec442f0560e01b8152600060048201526024016105b1565b6103b9600083836108aa565b610736610907565b6103b98282610950565b610748610907565b6105c3816109a1565b7f9016d09d72d40fdae2fd8ceac6b6234c7706214fd39c1cd1e609a0528c19930080546001600160a01b031981166001600160a01b03848116918217845560405192169182907f8be0079c531659141344cd1fd0a4f28419497f9722a3daafe3b4186f6b6457e090600090a3505050565b600080516020610e808339815191526001600160a01b0385166107fb5760405163e602df0560e01b8152600060048201526024016105b1565b6001600160a01b03841661082557604051634a1406b160e11b8152600060048201526024016105b1565b6001600160a01b038086166000908152600183016020908152604080832093881683529290522083905581156108a357836001600160a01b0316856001600160a01b03167f8c5be1e5ebec7d5bd14f71427d1e84f3dd0314c0f7b2291e5b200ac8c7c3b9258560405161089a91815260200190565b60405180910390a35b5050505050565b60005460ff166108fc5760405162461bcd60e51b815260206004820152601c60248201527f556e697377617020706f6f6c206e6f742063726561746564207965740000000060448201526064016105b1565b6105d38383836109a9565b7ff0c57e16840df040f15088dc2f81fe391c3923bec73e23a9662efc9c229c6a0054600160401b900460ff166104ea57604051631afcd79f60e31b815260040160405180910390fd5b610958610907565b600080516020610e808339815191527f52c63247e1f47db19d5ce0460030c497f067ca4cebf71ba98eeadabe20bace036109928482610d9e565b50600481016106388382610d9e565b61058b610907565b600080516020610e808339815191526001600160a01b0384166109e557818160020160008282546109da9190610e5e565b90915550610a579050565b6001600160a01b03841660009081526020829052604090205482811015610a385760405163391434e360e21b81526001600160a01b038616600482015260248101829052604481018490526064016105b1565b6001600160a01b03851660009081526020839052604090209083900390555b6001600160a01b038316610a75576002810180548390039055610a94565b6001600160a01b03831660009081526020829052604090208054830190555b826001600160a01b0316846001600160a01b03167fddf252ad1be2c89b69c2b068fc378daa952ba7f163c4a11628f55a4df523b3ef84604051610ad991815260200190565b60405180910390a350505050565b60006020808352835180602085015260005b81811015610b1557858101830151858201604001528201610af9565b506000604082860101526040601f19601f8301168501019250505092915050565b80356001600160a01b0381168114610b4d57600080fd5b919050565b60008060408385031215610b6557600080fd5b610b6e83610b36565b946020939093013593505050565b600080600060608486031215610b9157600080fd5b610b9a84610b36565b9250610ba860208501610b36565b9150604084013590509250925092565b634e487b7160e01b600052604160045260246000fd5b600082601f830112610bdf57600080fd5b813567ffffffffffffffff80821115610bfa57610bfa610bb8565b604051601f8301601f19908116603f01168101908282118183101715610c2257610c22610bb8565b81604052838152866020858801011115610c3b57600080fd5b836020870160208301376000602085830101528094505050505092915050565b60008060408385031215610c6e57600080fd5b823567ffffffffffffffff80821115610c8657600080fd5b610c9286838701610bce565b93506020850135915080821115610ca857600080fd5b50610cb585828601610bce565b9150509250929050565b600060208284031215610cd157600080fd5b610cda82610b36565b9392505050565b60008060408385031215610cf457600080fd5b610cfd83610b36565b9150610d0b60208401610b36565b90509250929050565b600181811c90821680610d2857607f821691505b602082108103610d4857634e487b7160e01b600052602260045260246000fd5b50919050565b601f8211156105d3576000816000526020600020601f850160051c81016020861015610d775750805b601f850160051c820191505b81811015610d9657828155600101610d83565b505050505050565b815167ffffffffffffffff811115610db857610db8610bb8565b610dcc81610dc68454610d14565b84610d4e565b602080601f831160018114610e015760008415610de95750858301515b600019600386901b1c1916600185901b178555610d96565b600085815260208120601f198616915b82811015610e3057888601518255948401946001909101908401610e11565b5085821015610e4e5787850151600019600388901b60f8161c191681555b5050505050600190811b01905550565b8082018082111561036657634e487b7160e01b600052601160045260246000fdfe52c63247e1f47db19d5ce0460030c497f067ca4cebf71ba98eeadabe20bace00a2646970667358221220a3d1fc1321503f95a88cc4bf0c02bd1397891a612695de2d8b1c59facc83e95b64736f6c634300081800339b779b17422d0df92223018b32b4d1fa46e071723d6817e2486d003becc55f00a264697066735822122009590f165dbb06cc3b1ee18659046611e46b0057875deef9f0bca0e26573550964736f6c63430008180033",
  "linkReferences": {},
  "deployedLinkReferences": {}
}